{
  "_format": "hh-sol-artifact-1",
  "contractName": "Tracking",
  "sourceName": "contracts/Tracking.sol",
  "abi": [
    {
      "inputs": [],
      "stateMutability": "nonpayable",
      "type": "constructor"
    },
    {
      "anonymous": false,
      "inputs": [
        {
          "indexed": true,
          "internalType": "address",
          "name": "sender",
          "type": "address"
        },
        {
          "indexed": true,
          "internalType": "address",
          "name": "receiver",
          "type": "address"
        },
        {
          "indexed": false,
          "internalType": "uint256",
          "name": "pickupTime",
          "type": "uint256"
        },
        {
          "indexed": false,
          "internalType": "uint256",
          "name": "distance",
          "type": "uint256"
        },
        {
          "indexed": false,
          "internalType": "uint256",
          "name": "price",
          "type": "uint256"
        }
      ],
      "name": "ShipmentCreated",
      "type": "event"
    },
    {
      "anonymous": false,
      "inputs": [
        {
          "indexed": true,
          "internalType": "address",
          "name": "sender",
          "type": "address"
        },
        {
          "indexed": true,
          "internalType": "address",
          "name": "receiver",
          "type": "address"
        },
        {
          "indexed": false,
          "internalType": "uint256",
          "name": "deliveryTime",
          "type": "uint256"
        }
      ],
      "name": "ShipmentDelivered",
      "type": "event"
    },
    {
      "anonymous": false,
      "inputs": [
        {
          "indexed": true,
          "internalType": "address",
          "name": "sender",
          "type": "address"
        },
        {
          "indexed": true,
          "internalType": "address",
          "name": "receiver",
          "type": "address"
        },
        {
          "indexed": false,
          "internalType": "uint256",
          "name": "pickupTime",
          "type": "uint256"
        }
      ],
      "name": "ShipmentInTransit",
      "type": "event"
    },
    {
      "anonymous": false,
      "inputs": [
        {
          "indexed": true,
          "internalType": "address",
          "name": "sender",
          "type": "address"
        },
        {
          "indexed": true,
          "internalType": "address",
          "name": "receiver",
          "type": "address"
        },
        {
          "indexed": false,
          "internalType": "uint256",
          "name": "amount",
          "type": "uint256"
        }
      ],
      "name": "ShipmentPaid",
      "type": "event"
    },
    {
      "inputs": [
        {
          "internalType": "address",
          "name": "_sender",
          "type": "address"
        },
        {
          "internalType": "address",
          "name": "_receiver",
          "type": "address"
        },
        {
          "internalType": "uint256",
          "name": "_index",
          "type": "uint256"
        }
      ],
      "name": "completeShipment",
      "outputs": [],
      "stateMutability": "nonpayable",
      "type": "function"
    },
    {
      "inputs": [
        {
          "internalType": "address",
          "name": "_receiver",
          "type": "address"
        },
        {
          "internalType": "uint256",
          "name": "_pickupTime",
          "type": "uint256"
        },
        {
          "internalType": "uint256",
          "name": "_distance",
          "type": "uint256"
        },
        {
          "internalType": "uint256",
          "name": "_price",
          "type": "uint256"
        }
      ],
      "name": "createShipment",
      "outputs": [],
      "stateMutability": "payable",
      "type": "function"
    },
    {
      "inputs": [],
      "name": "getAllTransactions",
      "outputs": [
        {
          "components": [
            {
              "internalType": "address",
              "name": "sender",
              "type": "address"
            },
            {
              "internalType": "address",
              "name": "receiver",
              "type": "address"
            },
            {
              "internalType": "uint256",
              "name": "pickupTime",
              "type": "uint256"
            },
            {
              "internalType": "uint256",
              "name": "deliveryTime",
              "type": "uint256"
            },
            {
              "internalType": "uint256",
              "name": "distance",
              "type": "uint256"
            },
            {
              "internalType": "uint256",
              "name": "price",
              "type": "uint256"
            },
            {
              "internalType": "enum Tracking.ShipmentStatus",
              "name": "status",
              "type": "uint8"
            },
            {
              "internalType": "bool",
              "name": "isPaid",
              "type": "bool"
            }
          ],
          "internalType": "struct Tracking.TypeShipment[]",
          "name": "",
          "type": "tuple[]"
        }
      ],
      "stateMutability": "view",
      "type": "function"
    },
    {
      "inputs": [
        {
          "internalType": "address",
          "name": "_sender",
          "type": "address"
        },
        {
          "internalType": "uint256",
          "name": "_index",
          "type": "uint256"
        }
      ],
      "name": "getShipment",
      "outputs": [
        {
          "internalType": "address",
          "name": "",
          "type": "address"
        },
        {
          "internalType": "address",
          "name": "",
          "type": "address"
        },
        {
          "internalType": "uint256",
          "name": "",
          "type": "uint256"
        },
        {
          "internalType": "uint256",
          "name": "",
          "type": "uint256"
        },
        {
          "internalType": "uint256",
          "name": "",
          "type": "uint256"
        },
        {
          "internalType": "uint256",
          "name": "",
          "type": "uint256"
        },
        {
          "internalType": "enum Tracking.ShipmentStatus",
          "name": "",
          "type": "uint8"
        },
        {
          "internalType": "bool",
          "name": "",
          "type": "bool"
        }
      ],
      "stateMutability": "view",
      "type": "function"
    },
    {
      "inputs": [
        {
          "internalType": "address",
          "name": "_sender",
          "type": "address"
        }
      ],
      "name": "getShipmentsCount",
      "outputs": [
        {
          "internalType": "uint256",
          "name": "",
          "type": "uint256"
        }
      ],
      "stateMutability": "view",
      "type": "function"
    },
    {
      "inputs": [],
      "name": "shipmentCount",
      "outputs": [
        {
          "internalType": "uint256",
          "name": "",
          "type": "uint256"
        }
      ],
      "stateMutability": "view",
      "type": "function"
    },
    {
      "inputs": [
        {
          "internalType": "address",
          "name": "",
          "type": "address"
        },
        {
          "internalType": "uint256",
          "name": "",
          "type": "uint256"
        }
      ],
      "name": "shipments",
      "outputs": [
        {
          "internalType": "address",
          "name": "sender",
          "type": "address"
        },
        {
          "internalType": "address",
          "name": "receiver",
          "type": "address"
        },
        {
          "internalType": "uint256",
          "name": "pickupTime",
          "type": "uint256"
        },
        {
          "internalType": "uint256",
          "name": "deliveryTime",
          "type": "uint256"
        },
        {
          "internalType": "uint256",
          "name": "distance",
          "type": "uint256"
        },
        {
          "internalType": "uint256",
          "name": "price",
          "type": "uint256"
        },
        {
          "internalType": "enum Tracking.ShipmentStatus",
          "name": "status",
          "type": "uint8"
        },
        {
          "internalType": "bool",
          "name": "isPaid",
          "type": "bool"
        }
      ],
      "stateMutability": "view",
      "type": "function"
    },
    {
      "inputs": [
        {
          "internalType": "address",
          "name": "_sender",
          "type": "address"
        },
        {
          "internalType": "address",
          "name": "_receiver",
          "type": "address"
        },
        {
          "internalType": "uint256",
          "name": "_index",
          "type": "uint256"
        }
      ],
      "name": "startShipment",
      "outputs": [],
      "stateMutability": "nonpayable",
      "type": "function"
    },
    {
      "inputs": [
        {
          "internalType": "uint256",
          "name": "",
          "type": "uint256"
        }
      ],
      "name": "typeShipments",
      "outputs": [
        {
          "internalType": "address",
          "name": "sender",
          "type": "address"
        },
        {
          "internalType": "address",
          "name": "receiver",
          "type": "address"
        },
        {
          "internalType": "uint256",
          "name": "pickupTime",
          "type": "uint256"
        },
        {
          "internalType": "uint256",
          "name": "deliveryTime",
          "type": "uint256"
        },
        {
          "internalType": "uint256",
          "name": "distance",
          "type": "uint256"
        },
        {
          "internalType": "uint256",
          "name": "price",
          "type": "uint256"
        },
        {
          "internalType": "enum Tracking.ShipmentStatus",
          "name": "status",
          "type": "uint8"
        },
        {
          "internalType": "bool",
          "name": "isPaid",
          "type": "bool"
        }
      ],
      "stateMutability": "view",
      "type": "function"
    }
  ],
  "bytecode": "0x6080604052348015600f57600080fd5b506000600181905550611a75806100276000396000f3fe6080604052600436106100865760003560e01c80637ff5265d116100595780637ff5265d146101605780638365da5414610189578063aace20b7146101cd578063cbc4b181146101f8578063faaff70e1461021457610086565b8063179a878c1461008b57806327506f53146100b457806341fdc195146100df5780635667e02f1461011c575b600080fd5b34801561009757600080fd5b506100b260048036038101906100ad91906112c2565b610258565b005b3480156100c057600080fd5b506100c961062c565b6040516100d69190611517565b60405180910390f35b3480156100eb57600080fd5b5061010660048036038101906101019190611539565b6107b6565b6040516101139190611575565b60405180910390f35b34801561012857600080fd5b50610143600480360381019061013e9190611590565b610801565b6040516101579897969594939291906115fd565b60405180910390f35b34801561016c57600080fd5b50610187600480360381019061018291906112c2565b6108c0565b005b34801561019557600080fd5b506101b060048036038101906101ab9190611590565b610b1c565b6040516101c49897969594939291906115fd565b60405180910390f35b3480156101d957600080fd5b506101e2610d06565b6040516101ef9190611575565b60405180910390f35b610212600480360381019061020d919061167b565b610d0c565b005b34801561022057600080fd5b5061023b600480360381019061023691906116e2565b611177565b60405161024f9897969594939291906115fd565b60405180910390f35b60008060008573ffffffffffffffffffffffffffffffffffffffff1673ffffffffffffffffffffffffffffffffffffffff16815260200190815260200160002082815481106102aa576102a961170f565b5b906000526020600020906007020190506000600283815481106102d0576102cf61170f565b5b906000526020600020906007020190508373ffffffffffffffffffffffffffffffffffffffff168260010160009054906101000a900473ffffffffffffffffffffffffffffffffffffffff1673ffffffffffffffffffffffffffffffffffffffff1614610372576040517f08c379a00000000000000000000000000000000000000000000000000000000081526004016103699061179b565b60405180910390fd5b600160028111156103865761038561135f565b5b8260060160009054906101000a900460ff1660028111156103aa576103a961135f565b5b146103ea576040517f08c379a00000000000000000000000000000000000000000000000000000000081526004016103e190611807565b60405180910390fd5b8160060160019054906101000a900460ff161561043c576040517f08c379a000000000000000000000000000000000000000000000000000000000815260040161043390611873565b60405180910390fd5b60028260060160006101000a81548160ff021916908360028111156104645761046361135f565b5b021790555060028160060160006101000a81548160ff021916908360028111156104915761049061135f565b5b02179055504282600301819055504281600301819055506000826005015490508260000160009054906101000a900473ffffffffffffffffffffffffffffffffffffffff1673ffffffffffffffffffffffffffffffffffffffff166108fc829081150290604051600060405180830381858888f1935050505015801561051b573d6000803e3d6000fd5b5060018360060160016101000a81548160ff02191690831515021790555060018260060160016101000a81548160ff0219169083151502179055508473ffffffffffffffffffffffffffffffffffffffff168673ffffffffffffffffffffffffffffffffffffffff167f3746ccceb54f44c9b0ee0120e596168d07ec9f6ca303cfdd9810d3b2e2686a2e85600301546040516105b79190611575565b60405180910390a38473ffffffffffffffffffffffffffffffffffffffff168673ffffffffffffffffffffffffffffffffffffffff167f2b6f2473aebafaf8d0889669490135928ec4454d2e29a103fd39693bbca6aef18360405161061c9190611575565b60405180910390a3505050505050565b60606002805480602002602001604051908101604052809291908181526020016000905b828210156107ad5783829060005260206000209060070201604051806101000160405290816000820160009054906101000a900473ffffffffffffffffffffffffffffffffffffffff1673ffffffffffffffffffffffffffffffffffffffff1673ffffffffffffffffffffffffffffffffffffffff1681526020016001820160009054906101000a900473ffffffffffffffffffffffffffffffffffffffff1673ffffffffffffffffffffffffffffffffffffffff1673ffffffffffffffffffffffffffffffffffffffff168152602001600282015481526020016003820154815260200160048201548152602001600582015481526020016006820160009054906101000a900460ff16600281111561076d5761076c61135f565b5b600281111561077f5761077e61135f565b5b81526020016006820160019054906101000a900460ff16151515158152505081526020019060010190610650565b50505050905090565b60008060008373ffffffffffffffffffffffffffffffffffffffff1673ffffffffffffffffffffffffffffffffffffffff168152602001908152602001600020805490509050919050565b6000602052816000526040600020818154811061081d57600080fd5b9060005260206000209060070201600091509150508060000160009054906101000a900473ffffffffffffffffffffffffffffffffffffffff16908060010160009054906101000a900473ffffffffffffffffffffffffffffffffffffffff16908060020154908060030154908060040154908060050154908060060160009054906101000a900460ff16908060060160019054906101000a900460ff16905088565b60008060008573ffffffffffffffffffffffffffffffffffffffff1673ffffffffffffffffffffffffffffffffffffffff16815260200190815260200160002082815481106109125761091161170f565b5b906000526020600020906007020190506000600283815481106109385761093761170f565b5b906000526020600020906007020190508373ffffffffffffffffffffffffffffffffffffffff168260010160009054906101000a900473ffffffffffffffffffffffffffffffffffffffff1673ffffffffffffffffffffffffffffffffffffffff16146109da576040517f08c379a00000000000000000000000000000000000000000000000000000000081526004016109d19061179b565b60405180910390fd5b600060028111156109ee576109ed61135f565b5b8260060160009054906101000a900460ff166002811115610a1257610a1161135f565b5b14610a52576040517f08c379a0000000000000000000000000000000000000000000000000000000008152600401610a49906118df565b60405180910390fd5b60018260060160006101000a81548160ff02191690836002811115610a7a57610a7961135f565b5b021790555060018160060160006101000a81548160ff02191690836002811115610aa757610aa661135f565b5b02179055508373ffffffffffffffffffffffffffffffffffffffff168573ffffffffffffffffffffffffffffffffffffffff167faafab9f94340179ff9cefd29621e1772a4b8efab8023163838f1b0a8f6ce5df58460020154604051610b0d9190611575565b60405180910390a35050505050565b60008060008060008060008060008060008c73ffffffffffffffffffffffffffffffffffffffff1673ffffffffffffffffffffffffffffffffffffffff1681526020019081526020016000208a81548110610b7a57610b7961170f565b5b9060005260206000209060070201604051806101000160405290816000820160009054906101000a900473ffffffffffffffffffffffffffffffffffffffff1673ffffffffffffffffffffffffffffffffffffffff1673ffffffffffffffffffffffffffffffffffffffff1681526020016001820160009054906101000a900473ffffffffffffffffffffffffffffffffffffffff1673ffffffffffffffffffffffffffffffffffffffff1673ffffffffffffffffffffffffffffffffffffffff168152602001600282015481526020016003820154815260200160048201548152602001600582015481526020016006820160009054906101000a900460ff166002811115610c8d57610c8c61135f565b5b6002811115610c9f57610c9e61135f565b5b81526020016006820160019054906101000a900460ff1615151515815250509050806000015181602001518260400151836060015184608001518560a001518660c001518760e0015198509850985098509850985098509850509295985092959890939650565b60015481565b803414610d4e576040517f08c379a0000000000000000000000000000000000000000000000000000000008152600401610d4590611971565b60405180910390fd5b60006040518061010001604052803373ffffffffffffffffffffffffffffffffffffffff1681526020018673ffffffffffffffffffffffffffffffffffffffff1681526020018581526020016000815260200184815260200183815260200160006002811115610dc157610dc061135f565b5b81526020016000151581525090506000803373ffffffffffffffffffffffffffffffffffffffff1673ffffffffffffffffffffffffffffffffffffffff16815260200190815260200160002081908060018154018082558091505060019003906000526020600020906007020160009091909190915060008201518160000160006101000a81548173ffffffffffffffffffffffffffffffffffffffff021916908373ffffffffffffffffffffffffffffffffffffffff16021790555060208201518160010160006101000a81548173ffffffffffffffffffffffffffffffffffffffff021916908373ffffffffffffffffffffffffffffffffffffffff16021790555060408201518160020155606082015181600301556080820151816004015560a0820151816005015560c08201518160060160006101000a81548160ff02191690836002811115610f1857610f1761135f565b5b021790555060e08201518160060160016101000a81548160ff021916908315150217905550505060016000815480929190610f52906119c0565b919050555060026040518061010001604052803373ffffffffffffffffffffffffffffffffffffffff1681526020018773ffffffffffffffffffffffffffffffffffffffff1681526020018681526020016000815260200185815260200184815260200160006002811115610fca57610fc961135f565b5b815260200160001515815250908060018154018082558091505060019003906000526020600020906007020160009091909190915060008201518160000160006101000a81548173ffffffffffffffffffffffffffffffffffffffff021916908373ffffffffffffffffffffffffffffffffffffffff16021790555060208201518160010160006101000a81548173ffffffffffffffffffffffffffffffffffffffff021916908373ffffffffffffffffffffffffffffffffffffffff16021790555060408201518160020155606082015181600301556080820151816004015560a0820151816005015560c08201518160060160006101000a81548160ff021916908360028111156110e0576110df61135f565b5b021790555060e08201518160060160016101000a81548160ff02191690831515021790555050508473ffffffffffffffffffffffffffffffffffffffff163373ffffffffffffffffffffffffffffffffffffffff167f5001b34ecf2db5b7bbeddcbbe761ec9ecadcc7638018b98ce3e24995b0e946b686868660405161116893929190611a08565b60405180910390a35050505050565b6002818154811061118757600080fd5b90600052602060002090600702016000915090508060000160009054906101000a900473ffffffffffffffffffffffffffffffffffffffff16908060010160009054906101000a900473ffffffffffffffffffffffffffffffffffffffff16908060020154908060030154908060040154908060050154908060060160009054906101000a900460ff16908060060160019054906101000a900460ff16905088565b600080fd5b600073ffffffffffffffffffffffffffffffffffffffff82169050919050565b60006112598261122e565b9050919050565b6112698161124e565b811461127457600080fd5b50565b60008135905061128681611260565b92915050565b6000819050919050565b61129f8161128c565b81146112aa57600080fd5b50565b6000813590506112bc81611296565b92915050565b6000806000606084860312156112db576112da611229565b5b60006112e986828701611277565b93505060206112fa86828701611277565b925050604061130b868287016112ad565b9150509250925092565b600081519050919050565b600082825260208201905092915050565b6000819050602082019050919050565b61134a8161124e565b82525050565b6113598161128c565b82525050565b7f4e487b7100000000000000000000000000000000000000000000000000000000600052602160045260246000fd5b6003811061139f5761139e61135f565b5b50565b60008190506113b08261138e565b919050565b60006113c0826113a2565b9050919050565b6113d0816113b5565b82525050565b60008115159050919050565b6113eb816113d6565b82525050565b610100820160008201516114086000850182611341565b50602082015161141b6020850182611341565b50604082015161142e6040850182611350565b5060608201516114416060850182611350565b5060808201516114546080850182611350565b5060a082015161146760a0850182611350565b5060c082015161147a60c08501826113c7565b5060e082015161148d60e08501826113e2565b50505050565b600061149f83836113f1565b6101008301905092915050565b6000602082019050919050565b60006114c482611315565b6114ce8185611320565b93506114d983611331565b8060005b8381101561150a5781516114f18882611493565b97506114fc836114ac565b9250506001810190506114dd565b5085935050505092915050565b6000602082019050818103600083015261153181846114b9565b905092915050565b60006020828403121561154f5761154e611229565b5b600061155d84828501611277565b91505092915050565b61156f8161128c565b82525050565b600060208201905061158a6000830184611566565b92915050565b600080604083850312156115a7576115a6611229565b5b60006115b585828601611277565b92505060206115c6858286016112ad565b9150509250929050565b6115d98161124e565b82525050565b6115e8816113b5565b82525050565b6115f7816113d6565b82525050565b600061010082019050611613600083018b6115d0565b611620602083018a6115d0565b61162d6040830189611566565b61163a6060830188611566565b6116476080830187611566565b61165460a0830186611566565b61166160c08301856115df565b61166e60e08301846115ee565b9998505050505050505050565b6000806000806080858703121561169557611694611229565b5b60006116a387828801611277565b94505060206116b4878288016112ad565b93505060406116c5878288016112ad565b92505060606116d6878288016112ad565b91505092959194509250565b6000602082840312156116f8576116f7611229565b5b6000611706848285016112ad565b91505092915050565b7f4e487b7100000000000000000000000000000000000000000000000000000000600052603260045260246000fd5b600082825260208201905092915050565b7f496e76616c69642072656365697665722e000000000000000000000000000000600082015250565b600061178560118361173e565b91506117908261174f565b602082019050919050565b600060208201905081810360008301526117b481611778565b9050919050565b7f536869706d656e74206973206e6f7420696e207472616e7369742e0000000000600082015250565b60006117f1601b8361173e565b91506117fc826117bb565b602082019050919050565b60006020820190508181036000830152611820816117e4565b9050919050565b7f536869706d656e7420616c726561647920706169642e00000000000000000000600082015250565b600061185d60168361173e565b915061186882611827565b602082019050919050565b6000602082019050818103600083015261188c81611850565b9050919050565b7f536869706d656e7420616c726561647920696e207472616e7369742e00000000600082015250565b60006118c9601c8361173e565b91506118d482611893565b602082019050919050565b600060208201905081810360008301526118f8816118bc565b9050919050565b7f5061796d656e7420616d6f756e74206d757374206d617463682074686520707260008201527f6963652e00000000000000000000000000000000000000000000000000000000602082015250565b600061195b60248361173e565b9150611966826118ff565b604082019050919050565b6000602082019050818103600083015261198a8161194e565b9050919050565b7f4e487b7100000000000000000000000000000000000000000000000000000000600052601160045260246000fd5b60006119cb8261128c565b91507fffffffffffffffffffffffffffffffffffffffffffffffffffffffffffffffff82036119fd576119fc611991565b5b600182019050919050565b6000606082019050611a1d6000830186611566565b611a2a6020830185611566565b611a376040830184611566565b94935050505056fea2646970667358221220678e47d55ef11183fac53253bb8dd7941e6053158558701a549164ce50f09fb664736f6c634300081b0033",
  "linkReferences": {},
  "deployedLinkReferences": {}
}